:100000000C9434000C943E000C943E000C943E0082
:100010000C943E000C943E000C943E000C943E0068
:100020000C943E000C943E000C943E000C943E0058
:100030000C943E000C943E000C943E000C943E0048
:100040000C943E000C943E000C943E000C943E0038
:100050000C943E000C943E000C943E000C943E0028
:100060000C943E000C943E0011241FBECFEFD8E04C
:10007000DEBFCDBF0E9440000C9467000C940000CE
:10008000ECE7F0E0808180648083EAE7F0E0808143
:1000900084608083808180688083CAE7D0E008E73D
:1000A00010E0888180648883888186FDFDCFF80117
:1000B00080819181808191810E945F00F2CFE0EC8C
:1000C000F0E0908195FFFDCF8093C6000895F894ED
:0200D000FFCF60
:00000001FF
