S0180000333238705F4144435F4578616D706C652E73726563AD
S11300000C9434000C943E000C943E000C943E007E
S11300100C943E000C943E000C943E000C943E0064
S11300200C943E000C943E000C943E000C943E0054
S11300300C943E000C943E000C943E000C943E0044
S11300400C943E000C943E000C943E000C943E0034
S11300500C943E000C943E000C943E000C943E0024
S11300600C943E000C943E0011241FBECFEFD8E048
S1130070DEBFCDBF0E9440000C943E010C940000F2
S11300800E946800ECE7F0E0808180648083EAE706
S1130090F0E0808184608083808180688083CAE707
S11300A0D0E008E710E0888180648883888186FD39
S11300B0FDCFF80180819181FFE32DE033E0F15021
S11300C020403040E1F700C000000E948100EBCFE7
S11300D01092C5008CE08093C400E0ECF0E08081D5
S11300E08260808388E18093C10086E08093C200AF
S11300F00895E0ECF0E0908195FFFDCF8093C60079
S113010008950F931F93CF93DF938C019C01329535
S113011022952F7023273F702327A7E4B3E00E9482
S11301202F01969587959695879596958795805DE9
S11301300E9479009801369527953695279536952E
S11301402795A5ECB0E20E942F01AC01529542958F
S11301504F7045275F7045279A01ADECBCEC0E94B7
S11301602F019695879596958795969587959C01E9
S1130170220F331F880F991F880F991F880F991F0B
S1130180820F931F9A01281B390BC901805D0E94BD
S1130190790098013695279536952795ABE7B4E114
S11301A00E942F01AC01569547959A01ADECBCEC29
S11301B00E942F0196958795969587959695879594
S11301C09C01220F331F880F991F880F991F880FD6
S11301D0991F820F931F9A01281B390BC901805D57
S11301E00E9479009801ADECBCEC0E942F01EC0157
S11301F0D695C795D695C795D695C7959E010E9465
S11302002F019695879596958795969587959C0148
S1130210220F331F880F991F880F991F880F991F6A
S1130220820F931F9E01281B390BC901805D0E9418
S11302307900CE01880F991FCC0FDD1FCC0FDD1F75
S1130240CC0FDD1FC80FD91FC8018C1B9D0B805D0F
S11302500E947900DF91CF911F910F910895A29F81
S1130260B001B39FC001A39F700D811D1124911D86
S1130270B29F700D811D1124911D0895F894FFCF34
S9030000FC
